:1000000002002275812A7405C0E07401C0E0E40298
:0200100001836A
:1000130075812A7405C0E07401C0E0E40201E07553
:100023000905A809750B017E1F7A2075812A75A021
:1000330038315675A00E315675A0013156D288D28B
:100043008AD2A8D2AAD2AF75A001315675A0803149
:100053005688E0C39400603575A041315F75A044B4
:10006300315F75A044315F75A052315F75A0453192
:100073005F75A053315F75A053315F515BE5153157
:100083001475A00131567C0431710200930200C340
:1000930075A054315F75A048315F75A041315F751C
:1000A300A04E315F75A04B315F75A053315F7C0467
:1000B300317175A00131561875080002004A808716
:1000C300E475A051315F75A055315F75A045315F6F
:1000D30075A055315F75A045315F75A0C031567568
:1000E300A046315F75A055315F75A04C315F75A097
:1000F3004C315F75A08031563139C37401950A6064
:1001030008C3E508B402F380B5750B01750A0080D6
:10011300ADBE2A027E1FAF818E81C0E0E40E8F81C7
:100123007F0022BA2B027A20AF818A81D0E0FDE4DE
:100133000A8F817F0022E50BB40106750B0031267F
:1001430008228D90B2B17C0A3171D517F7E4C2B1A0
:1001530022014AC2B6D2B73168C2B722D2B6D2B7E9
:100163003168C2B7227B0A79FFD9FEDBFA22758A8E
:1001730000758C00D28C308DFDC28DDCF9C28C22CF
:10018300E8C39505600312013975A001315675A0C6
:1001930055315F75A020315F75A031315F75A020A7
:1001A300315F75A046315F75170A314575080075D3
:1001B300A001315675A057315F75A041315F75A01D
:1001C30049315F75A054315F75A02E315F75A02E44
:1001D300315F75A02E315F208B0280FB32E508C3AF
:1001E3009400600BC39401604775080202025A75BC
:1001F300A001315675A055315F75A020315F75A000
:1002030032315F75A020315F75A043315F3126081D
:10021300C3E5090498600D75170240023145C30513
:100223000802025AA809750A017508FF1AD380E764
:1002330075A001315675A053315F75A054315F75B8
:10024300A041315F75A052315F75A054315F7C04CA
:100253003171050802025A3275900F758000E590DE
:100263007C03120171540FB40F0280EF517AE590B1
:10027300540FB40F1580E4758901758ADF758CB14D
:10028300D28C308DFDC28DC28C227580FEE59054D8
:100293000FB40F217580FDE590540FB40F1C7580CA
:1002A300FBE590540FB40F177580F7E590540FB426
:1002B3000F1202025E900300800F900304800A90E5
:1002C3000308800590030C8000135003A380FAE415
:1002D30093B445030202E5B4430D75A00131560200
:1002E300004A85E0A08004F51580F7315F944560EE
:0502F3000302025E227F
:100300003132334134353642373839432A30454467
:00000001FF
